:020000040800F2
:1000000040790220C94C000881ED0108B54C000878
:10001000B54C0008B54C0008B54C000800000000C5
:100020000000000000000000000000009D4D0008DE
:10003000B54C000800000000394D0008058B010890
:10004000654F0008654F0008654F0008654F0008C0
:10005000654F0008654F0008654F0008654F0008B0
:10006000654F0008654F0008654F0008654F0008A0
:10007000654F0008654F0008654F0008654F000890
:10008000654F0008654F0008654F0008654F000880
:10009000654F0008654F0008654F0008654F000870
:1000A000654F0008654F0008654F0008654F000860
:1000B000654F0008654F0008654F0008654F000850
:1000C000654F0008654F0008654F0008654F000840
:1000D000654F0008654F0008654F0008654F000830
:1000E000654F0008654F0008654F0008654F000820
:1000F000654F0008654F0008654F0008654F000810
:10010000654F0008654F0008654F0008654F0008FF
:10011000654F0008654F0008654F0008654F0008EF
:10012000654F0008654F0008654F0008654F0008DF
:10013000654F0008654F0008654F0008654F0008CF
:10014000654F0008654F0008654F0008654F0008BF
:10015000654F0008654F0008654F0008654F0008AF
:10016000654F0008654F0008654F0008654F00089F
:10017000654F0008654F0008654F0008654F00088F
:10018000654F0008654F0008654F0008654F00087F
:10019000654F0008654F0008654F0008654F00086F
:1001A000654F0008654F0008654F0008654F00085F
:1001B000654F0008654F0008654F0008654F00084F
:1001C000654F0008654F0008654F0008654F00083F
:1001D000654F0008654F0008654F0008654F00082F
:1001E000654F0008654F0008654F0008654F00081F
:0801F000654F0008654F00088F
:1002000001F0FF01102A2BDB10F0070F08D010F8C7
:10021000013B013A8B422DD010F0070F42B3F6D1CB
:10022000F0B441EA012141EA014122F007047FF0E4
:1002300000070023F0E80256083C85EA010586EA3B
:10024000010685FA47F5A3FA87F586FA47F6A5FA77
:1002500087F68EB9EED1F0BC01F0FF0102F0070283
:1002600032B110F8013B013A83EA010313B1F8D12E
:100270000020704701387047002D06BF354603380F
:10028000073815F0010F07D1013015F4807F02BF48
:10029000013015F4C03F0130F0BC0138704700BF99
:1002A0007BB972B90029BEBF00204FF0004106E0C3
:1002B00008BF00281CBF6FF000414FF0FF3000F076
:1002C00057B8ADF1080C6DE904CE002909DB002B0D
:1002D0001ADB00F069F8DDF804E0DDE9022304B080
:1002E0007047404261EB4101002B1BDB00F05CF8E2
:1002F000DDF804E0DDE9022304B0404261EB410196
:10030000524263EB43037047524263EB430300F0F6
:100310004BF8DDF804E0DDE9022304B0404261EB74
:1003200041017047524263EB430300F03DF8DDF8B2
:1003300004E0DDE9022304B0524263EB430370475B
:1003400053B94AB9002908BF00281CBF4FF0FF313C
:100350004FF0FF3000F00CB8ADF1080C6DE904CEA1
:1003600000F022F8DDF804E0DDE9022304B0704774
:10037000704700BF10F8012B11F8013B012A28BF7C
:100380009A42F7D0D01A7047034611F8012B03F8B0
:10039000012B002AF9D17047034613F8012B002ADC
:1003A000FBD1181A013870472DE9F04786468C4674
:1003B0000846089E154674461946002B40F0C28038
:1003C0008542B2FA82F245D94AB1C2F1200300FA5D
:1003D00002FC2EFA03F3954043EA0C0C94404FEADA
:1003E000154EA8B2BCFBFEF8230C0EFB18CC08FB84
:1003F00000F943EA0C43994528D9EB1808F1FF3777
:1004000004D2994502D9A8F102072B44A3EB0903B2
:10041000A4B2B3FBFEFC0EFB1C330CFB00F044EA61
:100420000344A04214D92C190CF1FF3304D2A0428A
:1004300002D9ACF102032C44241A43EA07401EB14E
:10044000D440002334607360BDE8F0874746DDE7A1
:100450006346F1E792BB431B01214FEA154EAFB251
:10046000B3FBFEFC200C0EFB1C330CFB07F840EA30
:100470000343984562D9EB180CF1FF3004D298453C
:1004800002D9ACF102002B44A3EB0803A4B2B3FBE6
:10049000FEFC0EFB1C330CFB07F744EA0344A742A7
:1004A0004ED92C190CF1FF3304D2A74202D9ACF17A
:1004B00002032C44E41B43EA0040C0E7C2F12003DE
:1004C00020FA03F1954090402EFA03F303434FEADC
:1004D000154EAFB2B1FBFEFC0EFB1C10190C0CFB51
:1004E00007F841EA0041884504FA02F422D9691864
:1004F0000CF1FF3004D2884502D9ACF10200294446
:10050000A1EB08019BB2B1FBFEFC0EFB1C110CFB26
:1005100007F743EA01439F420ED9EB180CF1FF3174
:1005200004D29F4202D9ACF102012B44DB1B41EA09
:10053000004192E76046E3E76146F7E76046A3E7DC
:100540006346B7E7834206D916B9002108467BE720
:10055000C6E900E0F9E7B3FA83F78FB9834201D324
:10056000724508D8BEEB020460EB030301209C46F1
:100570001EB9002168E73846FAE7C6E9004CF8E7FB
:10058000C7F1200CBB4022FA0CF41C432EFA0CF1EC
:1005900020FA0CF3B84001434FEA14490EFA07F56C
:1005A000B3FBF9F81FFA84FE09FB18300B0C08FBAB
:1005B0000EFA43EA00439A4502FA07F240D9E318DB
:1005C00008F1FF3004D29A4502D9A8F10200234471
:1005D000A3EB0A0389B2B3FBF9F809FB183308FB54
:1005E0000EFE41EA03418E452CD9611808F1FF3314
:1005F00004D28E4502D9A8F10203214443EA004007
:10060000A0FB0298A1EB0E014145CE46434602D322
:1006100006D14D4504D2B9EB020E68EB0403013854
:10062000002EA6D0B5EB0E0261EB030101FA0CFC23
:1006300022FA07F34CEA0303F940C6E9003198E7D0
:100640004046C5E74346D9E72DE9F047044688B060
:100650008846174625F0C7FE0A220023FFF770FEE2
:10066000B8F1010F06460D4607D102460B4620465B
:1006700027491DF0E8FA002011E07F682548394637
:10068000FFF778FE70B139462348FFF773FE48B193
:1006900020463A4621491DF0F2FA6FF0040008B0F6
:1006A000BDE8F0873046294617A3D3E90023FFF7BA
:1006B000F7FD06460D4610461946194A0023FFF776
:1006C000EFFD80460F46104619464EF66022002385
:1006D000FFF7E6FD82468946104619464FF47A72C6
:1006E0000023FFF7DDFDCDE902A9CDE90623CDE921
:1006F000040132462B460B492046CDE900871DF008
:10070000A2FAB8E7AFF30080005C26050000000005
:1007100016940208279402082A94020833940208C7
:1007200080EE36004B94020870B50B4D0B4E0C4C0E
:100730004FF0FF324FF0FF330021284619F0B2F995
:10074000002802DA30461AF06FFE00232046D3E973
:1007500000121AF057FEEBE7501302209E90020899
:10076000BB90020873B50CF025F8044628B9274859
:1007700002B0BDE870401AF045BE24F0A3F920464F
:1007800015F042FC021E05DA12F1780F21D1204843
:100790001AF04AFE1F4E204D4FF0FF304FF0FF3150
:1007A00015F02AFC044630B321F040FB0522042357
:1007B000CDE90023002200236946174825F0CFFA2F
:1007C00000280BDA204621F051FB14481AF02CFEC9
:1007D000E2E7214612481AF015FEDBE711481AF04D
:1007E00023FEE9682B6A1048C91A1AF00BFE20464E
:1007F00021F03CFBD0E730461AF016FE4FF0FF31F7
:100800004FF0FF3025F02AFDF1E700BFCE9002083F
:10081000E2900208919102085013022039910208D7
:1008200003910208579102087C91020810B5054C0B
:1008300020461AF0F9FD4FF0FF314FF0FF3025F060
:100840000DFDF5E7AA910208D0B5002688B0002773
:10085000002405234FF48062164900941648CDE920
:100860000334CDE90667154BCDE9014419F096FD37
:1008700006234FF40062124904941248CDE9024362
:10088000CDE90667104BCDE9004419F087FD072339
:100890004FF480620D4904940D48CDE90243CDE93F
:1008A00006670C4BCDE9004419F078FD204608B0EE
:1008B000D0BD00BFC049022088170220650700088C
:1008C00080410220C016022029070008403D022076
:1008D000F81502202D0800082DE9F04F91B084078B
:1008E00005460E46009302F00403DDF8688002938B
:1008F000C2F3C203039203F10103059340F0BA81EE
:10090000041D30B1072909D86FF01B0011B0BDE8F4
:10091000F08F01F007063444C6F10806009B4FF043
:1009200000094FF0040A591E4FF0FF334F46CB46E3
:1009300001935346CDF810900DB1009A22600598AE
:10094000002800F3E8809848009A824203D3974831
:100950008242C0F0E080039AA4EB050E92074FEAB2
:100960009E0000F103810F2F00F2B180002D00F0F6
:10097000058107F140020DEB020C019A0CF8200CE6
:100980000CF8102C049801300490E7E07A285DD828
:100990004B280ED8472859D829282DD8252852D099
:1009A00054D820287AD02338D0F1000B4BEB000B21
:1009B00074E04C382E2849D8DFE800F070484848E9
:1009C00048484848484848484B48484848484848A4
:1009D0004859484B4B595959704B6D487048184B02
:1009E000184848827F4B48484B487F0000204FF012
:1009F000000B4FF0040A38E02A380122C0B202FA94
:100A000000F010EA0E0F49D110F0625C2FD110EA0D
:100A1000020B43D06046013C5444B4FBFAF40AFB99
:100A200004F4002D61D0A3EB050CA444B4453FF6BB
:100A30006BAF002868D1042B47D158F8043B2360E2
:100A4000043404232AE0019A013A01924FF0000B8A
:100A500024E011F8010C6C2834D111F8023C00207C
:100A60006C2B8346C5D14FF0080A5346D3E708F1F3
:100A70000708073428F0070824F00704F8E802AB59
:100A800035B106982044B0423FF63EAFC4E900AB12
:100A900008344FF0000B4FF0080A534611F8010FCD
:100AA000002878D0BBF1000F7FF470AF2528F5D176
:100AB000019B4FF0010B013301934FF0040AECE767
:100AC000584694E700208346A5E7082B02D06FF034
:100AD00015001BE708F1070828F00708F8E80223CB
:100AE000C4E9002308340823D8E768B9042B02D1ED
:100AF00008F10408A4E7082BE9D108F1070828F059
:100B0000070808F10808EDE7059A013A059258F838
:100B1000042B009210E7039A900720D5A4EB050E52
:100B20004FF0010C4FEA9E00BEF5007FCFD20F2F91
:100B3000CDD8F5B107F14002C0B20DEB020E019A1B
:100B40000EF8200C0EF8102CBCF1000F3FF41AAF79
:100B500060F07F0009F101090EF8200C0137C5F1A2
:100B6000080204344FF6DA7E069297E74FF0000C45
:100B7000DAE7BCF1000F01D00136EFE70298023648
:100B80000028EBD10098CDE90631FFF705FC0644BB
:100B9000DDE90631E2E7631BB3F5806F97D23DB91B
:100BA000A6F10804E018B1E6906B02086806030895
:100BB0009B08029A28602B709DF81030C2B1EB7030
:100BC00085F80290B9F1000F05D008A80022C5F100
:100BD000010C97420ED1C5F101030DF120084FF031
:100BE000000A0DF1300B0193574512D1601B8DE6C1
:100BF0006B70E5E710F8013B190608D50CEB040E05
:100C000003F07F03B6453FF67FAE04F8013B0132A7
:100C1000DFE7B9F1000F03D098F90020002A17DBB5
:100C2000029BD3B11AF80B2004F8012B0022019B80
:100C300018191044B0423FF667AE98F800000099CA
:100C400004F8010B2046039225F016FD039A144484
:100C50000AF1010A08F10108C6E798F8002055F8E2
:100C600022300093029B009845F82230FFF794FB56
:100C7000421CDCE76FF00D0048E600BF2DE9F04FA5
:100C800097B00446894600AF90F802A0D7F880B02C
:100C90003B62CBF3C003FA62BB6141B9457800788F
:100CA0000AEB800020444D4517D8A0EB0409E378F7
:100CB000FB61BAF1000F02D01BF0010F16D1FB69E6
:100CC00053BBFB6A1BB13A6A4946204698474D46DA
:100CD00028465C37BD46BDE8F08F461C09F1010986
:100CE0003046FFF759FB01303044DCE72378626877
:100CF00099007A62FA6A796104EB8301002A40F074
:100D000004814D460E4601EB0A094FF000084E459E
:100D100050D101EB0A0610E01BF0020FD1D023786E
:100D20009A0004EB83017A6162687A62FA6A002AA7
:100D30007BD14D4601EB0A0690461BF0050F0CBF18
:100D400002230123FB62FB6906EB430A0BF002035B
:100D5000BB625645BCD016F8021B16F8013C54F88D
:100D600023909B4B994502D39A4B99453AD3BB6943
:100D7000002B44D0786A1CF072F800283FD09648C7
:100D8000036813F0060F13D0E9468AB06A46934B06
:100D900053617B6AC2E906314FF400731384904BB0
:100DA00042F8103F00234FF4125100F069FECD4687
:100DB000023DCEE716F8013BF96254F82300FFF735
:100DC000EBFAD7F884300130F96A4BB1D7F88830A4
:100DD00098453EBFD7F8843023F8180008F1010881
:100DE000054494E7BB6923B1786A1CF038F8002801
:100DF000C5D11BF0010F05D1FB6AED1AA9E7BB6A4B
:100E0000002BA6D04846FFF7C7FAD7F8843053B175
:100E1000D7F8883098453FBF431CD7F8842022F884
:100E2000183008F10108054493E7BAF1000F72D0B9
:100E30001BF0040672D0D046002607F14800524647
:100E40003B61B96225F018FCB96A3B6901EB0A0203
:100E5000F969BA62FA695200FA60BA6A02EB4102B1
:100E60003A610BF00202BA603A69B96A8A4257D114
:100E70001BF0020F62780CBF4FEA580100217A6222
:100E80001BF0010F3244D2B240F09F801BF0040FE0
:100E900014BF40460020BB616270A0702046E17024
:100EA0003A6A7969FB6A9847051EFFF611AFBB697C
:100EB00041463A6A07F1480023707B6A84F802A031
:100EC0006370FB69E370FB6A9847B0F10008C0F2F9
:100ED000BB807B69A9EB0A013A6AC91AFB68C91A87
:100EE000D7E90A0398470028C0F2B080A8444FF021
:100EF000000B07F1380A08EB0005B34572D3002157
:100F00003A6AFB6A08469847E2E656464FF0000800
:100F100007F1380093E75646D04697E7B04695E785
:100F2000BA6A12F8021B12F8015CBA6254F8250082
:100F3000274A904202D3274A90421ED3BA6932B15F
:100F4000786A7B601BF08BFF7B6800288CD1BA68C5
:100F500002BB08F1280207F1300C08F1010008F18A
:100F60000208944407F158025FFA88F852FA80F0B8
:100F70000CF8101C00F8105C76E7BA693AB1786A90
:100F80007B601BF06CFF7B6800287FF46DAF1BF06B
:100F9000010F09D006F1280207F13000711C161864
:100FA00006F8205CCEB25FE71BF0040F3FF45CAFA5
:100FB00008F1280207F1300008F1010102EB0008F6
:100FC00008F8105C5FFA81F84EE7002063E700BF85
:100FD000906B02086806030820110220B1910208F4
:100FE000040000011BF80A3054F8239087F83730CA
:100FF000D7F884302BB3D7F888309B4521D2D7F867
:10100000843033F81B803A6A012107F13700FB6A0C
:10101000984700281ADB0544B8F1000F06D148466E
:10102000FFF7BAF900F101081FFA88F83A6A414659
:101030004846FB6A9847002808DB05440BF1010B82
:101040005BE74FF00008DEE7454641E605463FE630
:1010500030B50446EFF31185102383F31288BFF3F4
:101060006F8F044B0FCB84E80F0085F31188BFF31B
:101070006F8F30BD5018022001281FB50C4605D0D7
:1010800004281DD06FF0150004B010BD25F0ABF999
:1010900042F210720023FFF753F9104B5A43C4E990
:1010A0000001A2606846FFF7D3FF694620461BF0A7
:1010B000FBFE18B90A4B0FCB84E80F000020E3E7D2
:1010C00025F091F942F210720023FFF739F9034B32
:1010D0005A43C4E90001A260F0E700BFA086010006
:1010E000D079020801287FB50D462DD18A68184BAA
:1010F0009A4229D825F077F942F2107200236C4603
:10110000FFF71EF94042134B61EB41015343CDE918
:1011100000012046029300F0C7F8294620461BF044
:10112000C3FEEFF31186102383F31288BFF36F8F92
:10113000094D94E80F0085E80F0086F31188BFF38E
:101140006F8F002004B070BD6FF01500FAE700BF8C
:10115000FFC99A3B6079FEFF50180220014B1860CE
:10116000704700BFA808022080B505460E46174606
:10117000984619F06DFCDFF82090034625F0FEFC40
:101180000446424649F8003039463046A84754F8EC
:10119000090003F0BBFD00BF080000002DE9F84383
:1011A00040F26C73446905690646E117E41805F1DD
:1011B0000105C76841F10001022D07F1FF378CBF1F
:1011C00000230123E41A61F1000100294EDA6FF4D3
:1011D000C7704FF4C8720023201861F10001FFF7B7
:1011E0005FF8254B4FF03C0E022D03FB00440246F6
:1011F0008CBF6FF002000920D6E90083B668054471
:101200004FEAE37C99469920634645430520C6FB97
:101210000E93A9FB0EC602350EFB0366A30840F22F
:101220006D1E1CEB080C0EFB043346EBE8763B44CA
:101230006427B4FBF7F4B5FBF0F51B1B0F4C2B44F4
:10124000A2FB042004FB010198180D4A41F10003A0
:1012500080180C4A63F10003A0FB020102FB03119A
:1012600010EB0C0041EB0601BDE8F8834FF4C872A7
:1012700000232046B3E700BF70FEFFFFB13A020033
:101280009405F5FF8051010010B5FFF787FF00249A
:1012900002460B46034925F071FC4450104619469E
:1012A00010BD00BF0C0000001F4B70B582689A4251
:1012B00015DD0133D0E9001692FBF3F301294FEA63
:1012C000E37476F100051CDAC91844EB0604C0E9A2
:1012D0000014164901FB03238360012070BD002A1E
:1012E000FBDA9B1A124ED0E90041B3FBF6F300295A
:1012F00010DA01F100459C4275F100050ADA002080
:10130000ECE7CD439D426FF00045A5EB0605A541F6
:10131000DADAF4E7E41A06FB032261F100018260E5
:10132000C0E90041D9E700BFFFC99A3B003665C458
:1013300000CA9A3B034A0020536823F0020353601B
:10134000704700BF002004E0064B1A6842F40072A8
:101350001A601A6842F480721A60034B034A1A60DA
:10136000704700BF003C0240901002200024F400AF
:101370002DE9F047044607464FF00109DFF8508099
:1013800014B93846BDE8F08794FAA4F5B5FA85F5A6
:1013900009FA05F32E0108EB05156FEA030A24EAA2
:1013A00003042B7B002BEBD058F806301B694BB99C
:1013B00046440422284607EA0A07736819681CF0A5
:1013C00052F9DDE7284698470028D9D1F0E700BF59
:1013D0009C75020830B5002289B00F490F4825F0EE
:1013E0004AF80022002300240D4D0E49284600949F
:1013F000CDE906230E234FF44072CDE90334CDE945
:101400000144094B18F0CAFF0849284618F0F4FEB9
:10141000204609B030BD00BF31140008301D022045
:1014200060180220004E0220791700087992020805
:10143000014818F095BC00BF801302202DE9F04749
:10144000804620480F461CF0DEF80646002832D0C1
:1014500000252846BDE8F087237B83B12368DB683D
:101460000BB120469847636883F8069023681B6990
:10147000CBB963680422204619681CF0F4F80136E1
:1014800010345445E8D3B8F1000FE2D0002DDFD07E
:101490002846FFF76DFF0546002FF7D00021642096
:1014A00024F0DCFEF2E7204698470028E1D009FA54
:1014B00006F31D43E3E7044C0546DFF810A04FF0A8
:1014C0000109DEE7A82902209C750208AC75020814
:1014D00008B5034608462BB1044A136000F072FDBC
:1014E000002008BD6FF01500FBE700BFAC0802202C
:1014F00010B5044C237813B9034818F031FC0123CC
:10150000237010BD8C3902208013022010B50446D0
:101510000B481CF078F85CB10A4BBFF35B8F53E8C3
:10152000001F013943E80012002AF8D1BFF35B8F96
:10153000054824F0ACFF0548BDE8104018F010BC89
:10154000A0290220A4290220301D0220801302209D
:101550000020064BBFF35B8F014653E8000F43E8C2
:101560000012002AF9D1BFF35B8F7047A029022037
:1015700070B5FFF7EDFF084C0546084EB44200D3A6
:1015800070BD63685B792BB123685B6813B1294632
:10159000204698471034F1E79C750208AC750208A4
:1015A00010B5044C044920461BF0C0FD034B1C60E1
:1015B00010BD00BFDC100220C07C02089829022068
:1015C00000230E4A4FF47A710D4810B513700D4A7E
:1015D00013600D4A1360FFF77BFFFFF7E1FF00F098
:1015E00079F90A4B0A4918468B4200D310BD1A1AE2
:1015F0005C681033121101322271F5E78D39022037
:1016000021D60108A0290220A42902209C750208E5
:10161000AC75020801460022002301481BF0A7BD5B
:10162000DC10022001481BF040BE00BFDC1002208D
:10163000024B014618681BF08CBE00BF982902209F
:1016400001481BF0C1BE00BFDC100220334B2DE966
:10165000F041187800285FD0FFF7E4FF0446002827
:1016600056D12F4B2F4C1B68002B12DD24F0BBFEF4
:101670000A220023FEF764FED4E90032C01A40F2C9
:10168000E93361EB0201984271F1000101D3FFF7E8
:101690006FFFD4E9003213F57A7342F10002C4E916
:1016A0000032BDE8F041FFF7CBBF6B685B793BB11F
:1016B00021784B0717D52B68214628461B68984789
:1016C00010354545F1D32046FFF7B2FF164BBFF367
:1016D0005B8F53E8001F013943E80012002AF8D15C
:1016E000BFF35B8FBDE726882046C1F3C20700F039
:1016F000A7FAC6F382160246002EDCD00028DADBF9
:1017000001233946284600F095F9B042D8D3D2E7F4
:10171000064DDFF81C80D4E7BDE8F0818C3902204B
:10172000A0290220281D0220A42902209C7502085D
:10173000AC75020870B50D4D297861B90C4C0120CB
:101740000C4EFFF77BFEB44206D3FFF77FFF002865
:10175000FBD101232B7070BD63685B791BB12368DB
:1017600020469B6898471034EDE700BF8D39022072
:101770009C750208AC75020800212DE9F047084667
:10178000FFF75CFE044658B34FF4FA784FF00009B7
:101790001C4B25F0F3F91C4A1B58136033B11B4B4B
:1017A0001B68092B02DD1A4818F0DAFA0025194FD8
:1017B000DFF85CA044B12046FFF7DAFD044618B913
:1017C0004FF0FF384FF0FF39FFF740FF064628B9CA
:1017D000B5B942464B46504618F0FEFA3546E9E7A1
:1017E0004FF0FF384FF0FF39D2E72B689B691BB1F0
:1017F00000222846114698471035BD42F5D3E8E748
:10180000054DFAE7080000009C290220A4290220C7
:1018100080130220AC7502089C75020813B51848A5
:101820001BF0F1FE174B1B7873B1EFF311841023FB
:1018300083F31288BFF36F8FFFF708FF84F31188DB
:10184000BFF36F8F02B010BD0F4B1B68002BF9D098
:1018500050B9002200230D48CDE9002342F2107256
:10186000002319F067FCEDE70928EBD1074824F0C5
:101870000EFE074802B0BDE8104018F071BA00BF74
:10188000A42902208D3902209C290220301D02202B
:1018900080130220064B10B504461B68984721466A
:1018A000A06004481BF0E2FCBDE81040FFF7B6BFA3
:1018B000AC080220DC100220044A054B9B1AB1EB55
:1018C000D30F34BF52F8310000207047347402083F
:1018D0009C7502080B4800210B4B1B1A043030B5D5
:1018E000DB080A4C994200D130BD10F8312001319B
:1018F000256802F0070225F007052A4344F8042B67
:10190000F0E700BF347402089C7502082011022021
:10191000F8B50B4F06460B4D0024ED1BED08AC420D
:1019200003D14FF0FF342046F8BD57F8340020B102
:101930003146FEF71FFD0028F5D00134EFE700BF68
:10194000347402089C75020800282DE9F047884687
:1019500015461F461DDADFF898904FF0000A254E15
:101960005446A6EB09063609B24509F1100902D121
:101970002046BDE8F08759F80C0C3B462A46414604
:1019800000790AF1010AFFF7DFFF844238BF0446FD
:10199000EAE7194B194AD21AB5EBD20F25D203EB5D
:1019A000C5031C79BC4228BF3C46C0B20722144E76
:1019B000002100EB400056F82530824023EA020364
:1019C00004F0070282401343032223FA02F0033299
:1019D00000F00700814238BF01461E2AF5D123F0EE
:1019E00007030B4346F82530C2E70024DDE700BFBC
:1019F0009C750208AC750208347402089C750208D4
:101A000020110220F8B5094D0646094B0F46002467
:101A1000ED1AED08AC4200D3F8BD22B201343B46CA
:101A200000213046A4B21BF016FEF3E79C750208B5
:101A30003474020870B14168097973B1002A17DB68
:101A4000CBB20C4903EB430351F82200D84000F01D
:101A5000070070474FF0FF31EFE707490748401A8A
:101A6000B2EBD00F3ABF01EBC201087918467047BC
:101A70000420704720110220347402089C7502086B
:101A80002DE9F04F8FB0C1F34A280D46914604AFBF
:101A90000C0DB8607B60B8F1000F67D0002607F12D
:101AA00014034FF0040B4FF00A0AC7F80C803246BB
:101AB0007E624846C7E90766019307F11C03CDF82B
:101AC00008B0CDF800A0F968FFF7D8F8B0F5006FBE
:101AD000034620D32A48036813F0060F17D06C463C
:101AE0008AB0D9F8041004AB264D1A46C3E9055153
:101AF00040F2FF71D9614FF400711984224B42F812
:101B0000103F4FF412513346FFF7BAFFA5462C376A
:101B1000BD46BDE8F08FC0F30A0804F117003B6032
:101B2000184468F3532520F007008008FFF772FD82
:101B3000044690B13B6800F11001144A4846F9612F
:101B4000C7E9083607F11403CDF808B0CDE900A3C2
:101B500007F11C03F968FFF791F868F353257B68D8
:101B6000B96820462A461BF0B2FDD0E704F1170001
:101B700020F007008008FFF74DFD0446EDE700BFA9
:101B8000301102208E92020804000001A1D6010843
:101B90002DE9F04F87B00446934698460391DDE95E
:101BA0001279DDE9105ADFB13B4652461021002080
:101BB000CDF80090CDF81490FEF78EFEB0F5006FD2
:101BC00006460ED31C48036813F0060F30D040F2CF
:101BD000FF731A4A022107B0BDE8F04F1BF0D0BDD9
:101BE0003E4604F0070405F117000BF0070BE40074
:101BF000304444EA8B1420F0070044EA462480086D
:101C000044EA0554FFF706FD054640B13FB13B46A7
:101C1000524631461030CDF80090FEF75DFE434647
:101C200022460399284607B0BDE8F04F1BF04FBD90
:101C300007B0BDE8F08F00BF30110220CD9202083E
:101C4000406820B1034BC01A40F38F0070474FF03B
:101C5000FF307047201102200EB403B503AB0146DC
:101C6000054853F8042B019303F00AFB02B05DF81A
:101C700004EB03B0704700BFE3D70108CA0605D4E0
:101C80008B064CBF02490349FFF7E6BF704700BF10
:101C9000F2960208059302082DE9F04F89B09B46A1
:101CA00004460D46149B90469DF84CA00693159B48
:101CB000179E0593169B0493BAF1000F00F09D80C8
:101CC00006F4807306F0020907931BF0C2FC02467B
:101CD00000283ED091492046FFF7BEFF0746B9F1E4
:101CE000000F08D016F0440F35D12A468C49204603
:101CF000FFF7B2FF074406F0010353B1894B2046BA
:101D0000894953F82A20894B002A08BF1A46FFF751
:101D1000A3FF06F48073002B49D006F00803002BC4
:101D200063D1B8F1000F66D0424681492046FFF7E3
:101D300093FF0546069B3D44002B6DD1049B002B71
:101D400073D1F30700F1E48031462046FFF796FF98
:101D5000D8E00746C3E7774B18680028CAD0764B0F
:101D60004FF47A794FF03C0C1B68B5FBF3F5B5FBEB
:101D7000F0F100FB11554FF4616309FB05F5B1FB70
:101D8000F3F2B5FBF0FE03FB121100FB1E55B1FB95
:101D9000FCF309FB05F50CFB1311B5FBF0F5009105
:101DA00020466649CDE901E5FFF756FFA2E706F0B8
:101DB0000803EBB1624B2046624953F82A20FFF733
:101DC0004BFF0546B8F1000F05D042465849204662
:101DD000FFF742FF0544BBF1000FABD05A465A490A
:101DE0002046FFF739FF0544A4E74FF0000BE1E779
:101DF00006F00805E6E745469CE7BBF1010F069BA8
:101E000006D1002B64D1049B002B7BD000250CE075
:101E1000002BF8D04D485CE04D48069B22464D49CA
:101E20001AF0ECFF049B002B68D0DFF82C81DFF860
:101E30002C91049F4FF0000B31462046102F28BFF5
:101E40001027FFF71BFF5D4545DC059B4FF0010B9D
:101E5000494620461A78FFF7FFFE1BF0070F03D113
:101E600041462046FFF7F8FE5F453BD9059B4946B2
:101E7000204613F80B20FFF7EFFE0BF1010BBBF12F
:101E8000100FEAD14FF0000B35492046FFF7E4FE72
:101E90005A46059B20469A5CA2F120015F293149F0
:101EA00028BF2E22FFF7D8FE0BF1010BBBF1100F5C
:101EB0001DD01BF0070F03D141462046FFF7CCFE93
:101EC0005F455A46E5D841462046FFF7C5FEEBE799
:101ED0001F485546A1E7414620460BF1010BFFF78D
:101EE000BBFEB0E720492046FFF7B6FEC5E7059BDD
:101EF0003B440593049BDB1B04939AD1BAF1000F7A
:101F00007FF41FAF204609B0BDE8F04F1BF05CBC6A
:101F1000064A20460449FFF79FFE15E703C402085E
:101F20000D930208D47C0208A399020808930208C2
:101F300032930208B0290220AC290220169302082D
:101F4000E87C0208369302083C93020819D801087D
:101F5000E3D701088152000872E9020841930208A0
:101F600047930208D0A0020870E9020842F20F73FA
:101F7000114A8B4273B5044628BF0B4605680521FC
:101F8000684619F071FA636806460B2228465B68BA
:101F90000A491BF00BFC63683246694628465B68B9
:101FA0001BF004FC63681B2205495B6828461BF094
:101FB000FDFB02B070BD00BF04F902086593020882
:101FC0004993020800210123064A904206D8064A96
:101FD00001B901231360054B1860704740080121C7
:101FE0005B00F2E740420F00AC290220B02902203A
:101FF000014B036001207047FC7C020810B50446C9
:1020000016F04CFE0349024620461BF01CFE002041
:1020100010BD00BFC493020837B513460022054621
:102020000A21019201AA586801F0E4FD019C4CB913
:1020300020EAE0700A2180FB010124F00FF920461C
:1020400003B030BD2246034928461BF018FE019C10
:10205000F5E700BFF0930208034A044908B51BF0F6
:10206000F2FD002008BD00BFDD940208E7940208DD
:10207000F7B517460023054601AA0A21B86801935F
:1020800001F0B8FD1749C6B228461BF0EAFD019CD5
:1020900044B12246144928461BF0F1FD019C20461C
:1020A00003B0F0BD042E09D9324610492846012458
:1020B0001BF0E5FD28461BF030FEF0E77868FFF7DF
:1020C00027FC021E07DA7A68284609496FF01504D2
:1020D0001BF0D5FDE3E7334612B2214620461BF044
:1020E000BAFADCE712950208789502089F95020873
:1020F000B6950208002307B50090694604488DF89C
:10210000043018F007FE9DF8040003B05DF804FBEE
:10211000A1D8010810B5044616F0A2FD07490246F1
:1021200020461BF090FD204605491BF08CFD214602
:10213000044818F009FE002010BD00BF15960208E3
:10214000349602084921000870B58EB004460D4649
:10215000D0F8AC6023F0BDFF224A034624F00EFD08
:102160001058214A2149002B18BF1A4623460092D5
:102170001F4A844218BF0A4628461E491BF063FDC9
:1021800028461D49D4E90A23CDE9002394F90E30ED
:10219000227B1BF058FD06A92022204618F03CF8AF
:1021A000636F0246154928461BF04DFD05A92046E0
:1021B00023F09DFF024628B1114928461BF043FD3C
:1021C0000EB070BD059B64222846F11A4A43009167
:1021D0000C49B2FBF6F2CDE9016232461BF033FD49
:1021E000EEE700BF080000003E96020872E9020810
:1021F000B0AA0208419602084D9602087996020894
:1022000090960208BD960208F0B591B000250446EC
:102210001C2208AF294609A8144E24F055FA1A22A8
:102220002021384624F050FA2146114818F08CFD40
:1022300007AA4FF40061304623F04DFF079A64234C
:102240002046C2F5006100974B43DB0A05934FF42B
:102250000063CDE90313CDE9013206492B46A6F10F
:1022600040021BF0F0FC284611B0F0BDC067022010
:10227000792200080E97020870B5044688B00D4612
:10228000D0F8AC6007A923F032FF024628B10F490D
:1022900028461BF0D8FC08B070BD204623F019FF7B
:1022A000079B64220096F11A4A43B2FBF6F2CDE98D
:1022B0000131074B0749002818BF03462846CDE9DE
:1022C000036222461BF0BFFCE5E700BF90960208C0
:1022D0003E9602085797020838B513460546102265
:1022E0000021586819F060F90446FFF703FF38B978
:1022F00022460E4928461BF0C2FC6FF0150038BD7F
:102300000B4B24F03BFC1B589C4204D10949284646
:102310001BF0B5FCF1E7204618F056F92846224696
:1023200005491BF090FC0020E9E700BFBB970208BD
:1023300008000000D6970208FE97020838B5134639
:10234000054610220021586819F02EF90446FFF7BF
:10235000D1FE38B922460E4928461BF090FC6FF09A
:10236000150038BD0B4B24F009FC1B589C4204D1CE
:10237000094928461BF083FCF1E7204618F042FA91
:102380002846224605491BF05EFC0020E9E700BF15
:10239000BB970208080000003D98020863980208F5
:1023A00038B51346054610220021586819F0FCF88C
:1023B0000446FFF79FFE38B922460E4928461BF017
:1023C0005EFC6FF0150038BD0B4B24F0D7FB1B589B
:1023D0009C4204D1094928461BF051FCF1E72046F4
:1023E00002F094FC2846224605491BF02CFC0020F4
:1023F000E9E700BFBB970208080000009E980208AA
:10240000C398020810B50C4600211BF014FF00B160
:1024100000680023024A2060E360C4E9012310BD84
:10242000E399020810B50C4600211BF008FF00B12B
:1024300000680023024A2060E360C4E9012310BD64
:10244000E399020870B50646506815461BF0FBFE7E
:10245000044640B96FF012046A680F4930461BF019
:102460000EFC204670BD23F097FB30B16A680B4923
:10247000304600241BF0D9FBF3E7204623F083FB12
:10248000044630B103466A68054930461BF0F7FB45
:10249000E7E76A680349EBE7FB980208109902082E
:1024A000329902085F9902082DE9F04F8FB0044677
:1024B0000F46904601A817F041F82422019B0821FD
:1024C00002FB003B2B4A20461BF0A2FB019D5D4511
:1024D00003D300200FB0BDE8F08F2E680EB1337823
:1024E00033B902AE2B46244A302102A818F0BCFFB3
:1024F000022F07D1D8F80410304624F06FF908B93C
:102500002435E4E733461D4A082120461BF080FBB2
:10251000284623F041FB1A4A1A4B0821002808BF1D
:102520001346194A20461BF073FB2B6A002BE7D099
:102530001E68002EE4D03368002BE1D0B2464FF085
:102540000009124A082120461BF062FB3368104A3A
:102550004B4505D80F4A082120461BF059FBCFE711
:102560005AF8043F0821204609F101091BF050FBED
:10257000ECE700BF929902089C990208A199020811
:10258000899902088399020865CE0208A699020873
:10259000A2990208F29602081FB50C68D1E904322C
:1025A00003944C68013302F26C7202948C680194BB
:1025B000C968009102491BF046FB04B010BD00BF82
:1025C0002D9A0208F7B5137806460F4615463A2BA2
:1025D00014D1541C23783A2B28D101340A2201A9A2
:1025E000204618F06BFF019A03463860A24217D0CC
:1025F0001078A8B93C2B15D915490EE00A2201A97B
:10260000284618F05BFF019CB860AC4208D02378E4
:102610003A2B05D1172807D90E4930461BF02FFB5E
:102620006FF0150003B0F0BD0134D3E70A2201A911
:10263000204618F043FF019B7860A342F0D01A783F
:102640003A2AEDD13B2801D90349E6E75C1CC5E7EE
:102650006C9A02084E9A02085C9A02082DE9F04131
:1026600090B00D460446012002A91746FEF704FD6E
:1026700007A902A818F018FE032D55D17D680A227B
:1026800001A9284618F01AFF019E8046B54215D0D0
:1026900032782D2A12D101360A2201A9304618F0CB
:1026A0000DFF019B9E4209D01A782D2A06D1451EA6
:1026B0000B2D0CD9284920461BF0E1FA20461BF0CF
:1026C0002CFB6FF01505284610B0BDE8F0815E1CAC
:1026D0000A2201A9304618F0F1FE019B9E42EDD07E
:1026E0001B78002BEAD1431E1E2B01D91B49E2E7C0
:1026F000A8F26C73BA680A90CDE90B5307A920467B
:10270000FFF760FF0028D9D107A8FEF7BDFDB1F1A2
:10271000FF3F08BFB0F1FF3FCDE9020108D11049EA
:1027200020461BF0ACFACCE7022DC7D17A68E5E76A
:1027300000230493012002A9FEF7D4FC054628B12A
:102740000246084920461BF09AFABAE707A9204634
:10275000FFF722FFB7E700BF7C9A02088B9A0208B6
:10276000989A0208C19A02082DE9F3411446884656
:10277000074610220021606818F016FFB8F1020F1A
:10278000064607D82023284A082138461BF040FA7D
:10279000336816E00A220021A06818F005FF224ADB
:1027A000C5B2082138462B461BF032FAB8F1030FA8
:1027B0001ED1102D0FD0202DEAD0082D0ED1337848
:1027C000DBB2002208213846CDE90032174A1BF05F
:1027D0001FFA002009E033889BB2F2E73846144A1A
:1027E00008211BF015FA6FF0150002B0BDE8F0816A
:1027F0001022E068002118F03DFF0E4A0446CDE9A2
:102800000001082138461BF003FA102D06D0202DB8
:1028100007D0082DE2D1E4B23470DAE7A4B23480F4
:10282000D7E73460D5E700BF069B0208319B02085A
:102830001B9B0208449B02082DE9F04F002387B040
:102840004FF0FF35914601930122504B20262C4634
:10285000DFF83CA1074688461A6002F053FD49465E
:102860005246404602F072FD411C06D16A1C41D11D
:10287000484938461BF003FA17E073281AD0772826
:1028800028D0612811D1DFF810B101AA1021DBF89E
:10289000000001F0AFF9019B0546002BDFD0DBF80B
:1028A00000203E4938461BF0EAF96FF0150007B0EA
:1028B000BDE8F08FDFF8E0B001AA0021DBF80000EE
:1028C00001F098F9019B0446002BC8D0DBF80020EA
:1028D0003349E7E7DFF8C0B001AA0021DBF80000C8
:1028E00001F088F9019B0646002BB8D0DBF80020E8
:1028F0002C49D7E7631C01D12B49BAE75FFA86F868
:10290000C6F3C406002C3FD002AB2946A6EB050C4B
:102910001A460CE0B8F1100F1DD0B8F1200F20D0EE
:10292000B8F1080F2AD10878187031443344A64210
:1029300003D80CEB01001028ECD9102CA146294635
:10294000384628BF4FF0100910354B46A4EB090458
:1029500001F016F8D6E7088880B21870000A58709F
:10296000E3E708684FEA102E187083F801E04FEA99
:10297000104E000E83F802E0D870D6E70B4A08210B
:1029800038461BF045F990E7204690E7F80802200A
:10299000949B02089B9B0208EC2C02205A9B020885
:1029A0006D9B0208809B0208B89B02081B9B0208D3
:1029B00070B50F4E04460D46337871B123B10D4901
:1029C000BDE870401BF05BB9012333700A49204613
:1029D0001BF039F90123337004E083F001033370F5
:1029E000002BF3D129462046BDE870401BF0AFB95B
:1029F0008E390220D29B02080D9C02082DE9F0417D
:102A000005460C468F18DFF8EC803B4EA74201D1FB
:102A1000BDE8F08198F8002014F8013B182A22D173
:102A2000112B20D1354C002635492846226888F8DC
:102A300000601BF008F928463146FFF7B9FF314B1B
:102A400018780028E4D1304A23681168042B2EDC62
:102A500008B12360116013F003012FD112681368CD
:102A60001BBA1360D4E7A3F1300288F80030092ABA
:102A700004D923F02002413A052A04D83168234AB8
:102A80005354013131603368022BBFD11022002131
:102A90001E4818F089FD1E4A136803F8010B1360E5
:102AA000164A13680133136000233360AEE70868E9
:102AB000043B00BA41F8040B0120C7E75B4203F076
:102AC000030358BF5942022904D1126813885BBA24
:102AD0009BB2C6E703299BD1106802681104C2F3B8
:102AE000074302F47F4201F47F010B431343036069
:102AF0008EE700BF8F390220B4290220B8290220B6
:102B0000379C020890390220BC290220913902200A
:102B1000C02902202DE9F84F00230C462A49064619
:102B2000DFF8A88015460B60DFF8A4902949DFF88C
:102B3000A8B088F800300B60012C2F4655F804AF80
:102B40001ED902224946504623F004FE80B99AF865
:102B50000220003A18BF0122924420490222504626
:102B600023F0F8FD30B9012388F80030013CE3E799
:102B70000022F1E749465046FDF7FCFBA8B90437AF
:102B800000227868114618F00FFD0022144B114600
:102B90001860786818F008FD124B13491860304629
:102BA000FFF706FF0020BDE8F88F9AF800202D2AD5
:102BB000E6D19AF80120002AE2D052465946304622
:102BC0001BF041F8D2E700BFB4290220903902205F
:102BD000519C0208B8290220579C0208549C020804
:102BE000C0290220BC290220FD29000807B50A4897
:102BF00022F0D2FF60B10423084A07490093012361
:102C00001268074800F022FF002003B05DF804FBC3
:102C10006FF01200F9E700BFD86E0208287E0208A4
:102C2000AC75020810B54468A360C4E9001242689C
:102C30004021134653F8404B516302F1380153626F
:102C40000023C2E9041308211363C2F8B8301162EB
:102C5000C2E90A33C2E90633A36823B19B6C13B1FE
:102C6000044920469847A3689B6A0BB120469847C1
:102C7000002010BD792C00082DE9F34705460C46CD
:102C800083685B6C03B19847AB685B6B73BB4FF0B9
:102C9000000904F1240704F12808218E3846238D09
:102CA000626B5B1A41469BB2D31A934228BF13460C
:102CB00001AA1AF0F1FB8246002844D0AB680199C2
:102CC0009B69002B33D0024628469847064688B3B6
:102CD0003246414638464FF001091AF013FC56457A
:102CE000DBD0D4E901310020984703E0284698471B
:102CF0000028CCD1AB685B6A002B37D1628B04F122
:102D00001007E38A04F11A0838469B1A226A4146E2
:102D10009BB2934228BF134601AA1AF0BDFB064698
:102D200058BB28461AF0E4FDC4F8B86031E06FF0F3
:102D30005706CDE70246414638461AF0E3FBB9F1A3
:102D4000000FD7D0CDE71748036813F0060F03D064
:102D5000154A02211AF00BFDAB689B69002BEED0DF
:102D600001220DF1030128469847E8E728469847D5
:102D70000028C3D102B0BDE8F087AB6801995B6958
:102D800063B10246284698470246414638461AF043
:102D9000B9FB0120D4E901319847EBE76FF0570206
:102DA000F3E700BFC4110220B99D020810B5816885
:102DB0000446183101F0B0F9A1682046024A1831E2
:102DC000BDE8104001F040B9FB9D020838B58368AA
:102DD0000446D3F87832DB071DD4C0691BF078FDB8
:102DE000606803685B689847054620B9E0681BF097
:102DF00065FFA3681D75A3685B6C13B12946204667
:102E00009847A368002223F0B9FEC3F8A022034B21
:102E1000185801F07BFF6FF00F05ECE70800000089
:102E200001491AF0EBBD00BFF29602082DE9F04F00
:102E3000A7B004465422002111A823F045FC00232A
:102E40002046CDE90533A368563302931BF016FBE9
:102E500020461BF05BFA10B96069FFF7E1FFA0683C
:102E600014220021002618304FF0FF3823F02CFCEC
:102E700020461BF0A6F9A168E068B246B1F85020E0
:102E800011AF5631B3463546B1461BF0DCFE204645
:102E90001BF03DFF0396DDE90532012A6CD0132BB0
:102EA0006DD8B8F1000F2BD1BBF1000F0AD020462E
:102EB0001BF04EFFA268142311A956320DEB03003C
:102EC0001AF0FEFFB9F1000F0CD099F81130FE2B6B
:102ED00008D1059B26AA02EB830252F8542C0AB1B2
:102EE00001330593A068059D436A002B40F0B5802F
:102EF000C6B1C3699E422BD000F118050D9622E0A1
:102F00000223029A394606A81AF0DAFF7A6806996F
:102F10000346029231B101290AD148B1694A2046DB
:102F20001BF05AFB6FF00705284627B0BDE8F08F6D
:102F3000059B002B32D0386801F020F998B166B1BA
:102F4000A5680D9618350CAE0FCE0FC533682B60F3
:102F500020460125FFF72AFFE6E75B4A01212046CC
:102F60001BF03AFBDEE7059BC3B13A6829462046D1
:102F700001F0A8FA022809D1059B132B94D9069BCE
:102F8000022B91D1514B0121514AC8E7032805D0AA
:102F9000059B4FF0010B013305937CE7039B2BB995
:102FA00007AA396848461BF082F80546043708F13D
:102FB000FF38A5B3EB68BBF1000F08D0FBB120468A
:102FC0001BF05CFA20461BF0B8F9424AC6E7B3B1E1
:102FD000A368AE46DDF814A003F1180CBEE80F009C
:102FE000ACE80F00DEF80030CCF80030AB6833B945
:102FF0006B7CFE2B04BF95F8108008F1FF38D5F8E4
:1030000004C0BCF1000F08D0AE460CAEBEE80F0005
:103010000FC6DEF8003033606646A94603E0059B24
:1030200063B101230393069BB8F1000F02D1022B79
:103030007FF431AF059B013305932CE7A368DB6A6E
:1030400013B1DB68002BECD1234B0121234A20462E
:103050000093119B1BF0C0FAE3E790F82830A5EB32
:103060000A05BBB190F829104FF6FF72FF2918BF6F
:103070000A469D4202D313449D420BD98369012124
:10308000174A20461BF0A8FA20466FF01505FFF7F7
:103090008DFE49E701211AF0F4FCA0681AF0E5FC66
:1030A000A36811AA29465B6A204602EB8A02984768
:1030B0000546A0681AF0DDFC0021A0681AF0E1FCCA
:1030C00032E700BF099E02081D9E02087E9E02088C
:1030D000D0B002083B9E02086A9E020878C402082B
:1030E000A29E0208F7B5044680680D46D0F87832F3
:1030F0005A0705D500211AF0CFFCE0681BF075FDDA
:10310000E368DB6873B9002D3BD0A66806F156076B
:1031100038461AF080FC002835D0394606F5AB70E9
:10312000FDF732F9A2680DF106032946E068563230
:103130001BF05EFD58B9A06800F5AB715630FDF785
:1031400023F9A06856301AF066FCADF80600204658
:103150001BF08DF9A368D3F874329B0603D50B4995
:1031600060691AF04BFC204600F0AAFDA268BDF889
:1031700006302046A2F85230A268A2F850301BF068
:10318000DCF803B0F0BD86F85601CBE7F079020811
:1031900010B50222836804461A7583689B6CBBB91C
:1031A0001AF003FC8368D3F87832DB040BD50321D3
:1031B000084B094A1BF010FAA0686FF4805100F523
:1031C0001E701AF00CFC2046BDE8104000F0FEBE58
:1031D00010BD00BFBD9E0208A39902082DE9F04F63
:1031E00004468068B1B0012100F51E701AF0E8FBBA
:1031F000A3681B7D022B20D100230993A36860687C
:103200009E6C03681D6909AB0EB310221BA9A84769
:10321000099B93B10121A0681AF033FC099A1BA9FC
:103220002046B0470021A0681AF02BFCA3689B6CD5
:10323000002BE3D12046FFF7ABFFA0686FF0010140
:1032400000F51E7031B0BDE8F04F1AF0C8BB012286
:103250000DF12301A847099B002BEED09DF92320F7
:103260009DF82330002AA068C8DB427D032A00F2C3
:103270000483DFE812F0040085029C0202030D2B98
:1032800067D00A2B43D0B0F87822092B6FF3CA021B
:10329000A0F8782272D029D8002B00F00381082BE7
:1032A000A06800F0E9810246D2F87412890740F163
:1032B000F980013B162B00F2F580DFE813F0C7021E
:1032C000FA01FE01F601C1021002F300F300F3005F
:1032D000F30014021802F3002D02F3003202F3008F
:1032E000F300F30034024402F30059021B2BA068E0
:1032F00041D07F2B00F0CC81A3F1200102465E2952
:10330000D2D801211AF0C8FB9DF82310B8E0D0F8FC
:103310007822C2F3C7022AB1D0F87822C2F3C702DA
:103320000A2AC0D1B0F8782263F3CA02A0F8782242
:10333000A568B5F85010C1B928461AF0ADFBE06891
:103340001BF053FC6069FFF76BFD2046FFF720FF81
:1033500054E7D0F87822C2F3C702002AE2D0D0F8AE
:103360007822C2F3C7020D2ADBE72046FFF75EFD95
:10337000C5F8A402E9E70123437593E0A068D0F8FB
:1033800074329B0740F18E8001211AF085FBA06802
:10339000B0F85030FF2B00F08580B0F8522000F1DB
:1033A000560100F5AB70002523F066F9A3681BA950
:1033B0000BA8B3F85220134483F856511423A26883
:1033C00002F5AB721AF07CFD0B9914296AD830AB68
:1033D00003EB810343F8545CA368B3F85220002A3E
:1033E00052D0134493F85530202B02D0093B042BC4
:1033F0004AD800294BD100250A9530AA0A9B0026FD
:1034000002EB8303B346B04653F854AC37465046FC
:103410001AF001FB814616AA3946284600F08EFBB9
:103420000346002842D1012E68D130AA0A9B02EB44
:10343000830353F8540C1AF0EEFAA268064641468C
:103440001832284600F07AFB056828461AF0E3FA9D
:10345000864205D0821BA919204692B21BF003F9BF
:10346000A068B0F85230034493F85630202B34D083
:10347000093B042B31D9D0F87432DF0732D4202134
:10348000204600F06BFD0DE00129B4D90139002080
:103490000CAB1BAA00930AAB01901AF034FE054650
:1034A0000028AAD160691AF058FCA7E61B684A46B2
:1034B00051461846039323F04DF960B9039B184613
:1034C000FCF76AFF584538BF5846002E08BFB8467B
:1034D00001361FFA80FB01379DE7012120461AF0D3
:1034E00060FFDFE700211AF0E1FA2021204600F01A
:1034F00035FD0121A0681AF0D9FAD3E70490D1D99B
:1035000030AB0A9AC14603EB820252F8543C18468B
:1035100003931AF080FA049BA2680590A2F8403049
:103520000496A2684946284609F10109183200F0BC
:1035300005FB039BD0F800A04BB1BAF1000F06D0F9
:10354000059A1946504623F005F90028E9D1A168EB
:10355000BAF1000F4ED1A1F840A0049B013B0493A7
:10356000DFD1606908F1010AFFF75AFC204600F03C
:103570002DFD30AA0A9B02EB830353F8540C1AF07A
:103580004AFA414611AA8146284600F0D7FA074672
:10359000A068FF22396800F5AB7023F0EDF83B68B6
:1035A0004FF6FF770393B84616AA514628460AF10C
:1035B000010B00F0C3FA002852D0A1680022036872
:1035C00001F2551111F801EF985C704503D110B16B
:1035D00001324245F6D1B9F1000F01D04A4507DB6F
:1035E000BA4206F1FF36A8BF3A46012E97B237D04D
:1035F000DA46D9E7A24806911AF00DFA069900EBCF
:103600000B074A8FBFB20791121A504692FBF7F28E
:1036100092B206921AF0FFF907993F1A069AB1F88A
:103620004000BFB200F1010CA1F840C0B0FBF2F1C4
:1036300002FB110080B260B9914B0621914A2046ED
:10364000CDF800A01AF0C8FF3946204600F022FB52
:1036500083E753468C4A062120461AF0BDFFF3E764
:10366000002F3FF41FAFA7EB09020399204692B247
:1036700049441AF0F8FF15E7D0F874329E077FF539
:1036800011AF01211AF008FA20461BF00DF809E7E6
:10369000D0F874329D077FF505AF01211AF0FCF9CF
:1036A000A368D3F874321807EED420461AF0DDFF71
:1036B000F8E620461AF0EBFEF4E620461AF0DEFEAD
:1036C00020461AF023FE10B96069FFF7A9FBA06835
:1036D00001211AF0E1F92046FFF75AFDE2E6204603
:1036E0001AF0DEFEDEE620461AF0E5FEDAE6D2F853
:1036F00074329F0603D5654960691AF07FF9A368A3
:10370000D3F874329E0603D5614960691AF076F9E0
:10371000204600F05BFCC5E600212046FFF7E2FCF6
:10372000C0E60121F9E7E06983681B79012B02D12A
:103730001BF0CEF8B6E6022B7FF4B4AED26C214675
:103740001BF0AFF8AEE620461AF091FE20461AF0C4
:103750002CF90121A0681AF09FF9A368D3F87432FC
:103760009D067FF59FAE4B4960691AF047F999E6CF
:10377000204600F01FFB0121A0681AF08DF991E6A8
:103780005B2B01D10223F7E5D0F87422900706D510
:10379000622B08D14FF0FF3120461AF02AFEA368B1
:1037A00000225A757EE6662BF9D10121F4E700224A
:1037B0004275A268D2F8741289077FF51FAD313BBC
:1037C0001B2B3FF66FAE01A151F823F049380008DA
:1037D00055380008693800083D380008A53400084D
:1037E000A5340008A5340008A5340008A534000855
:1037F000A5340008A5340008A5340008A534000845
:10380000A5340008A5340008A534000823370008B3
:1038100019370008DF360008B3360008A534000861
:1038200041380008A53400084D380008A5340008C8
:10383000A5340008A534000859380008032353753F
:1038400020461AF01BFE2DE60323537520461AF07E
:103850000EFE27E603235375A068D0F8741201F01A
:10386000010181F0010146E603235375A368D3F8F3
:1038700074329B077FF516AE17E700237CE500BF87
:1038800071E90208019F0208A3990208F57902086C
:10389000FA790208F07902082DE9F34104468068BC
:1038A000154600F51E7000293AD04FF480411AF0F9
:1038B00087F8A3680021DD64606803689B68984707
:1038C00098BB20461AF030F978BB4FF0FF364FF026
:1038D000FF37174DDFF85C80A06800F51F700022ED
:1038E0000721CDE9006722F0BDFEA0681AF0C1F8FB
:1038F0002A46042120461AF0FBF8424601212046C0
:103900001AF0F6F820460C4A02211AF0F1F8606825
:1039100003685B6903B19847A0681AF0A6F8DBE773
:103920006FF480411AF05BF8C3E702B0BDE8F081A4
:10393000CD2D0008DD31000823DA010810B504465A
:103940000A491AF080F90A4920461AF07CF9204603
:1039500008491AF078F9204607491AF074F9204608
:10396000064A002100F070FB002010BD079F0208EE
:10397000459F0208A49F0208F89F020893A002082E
:10398000F8B51E4617460A46294904461AF05BF95F
:103990003EB301253A78274920461AF054F96A07C0
:1039A00003D1254920461AF04EF9AE421ED97A5D60
:1039B000204620491AF047F90135102DEFD11F4953
:1039C00020461AF040F9B6B901251B4920461AF0E5
:1039D0003AF9AE422B4610D8174920461AF033F96F
:1039E00015E00125164920461AF02DF91449204604
:1039F0001AF029F9E0E700252B46FA5C2046114928
:103A0000A2F120035F2B28BF2E221AF01CF90135EA
:103A1000102D06D06B07DCD1074920461AF013F9A8
:103A2000D7E720460849BDE8F8401AF00CB900BFB6
:103A3000A9A002084193020872E90208479302080C
:103A400070E90208D0A00208B0A002082DE9F041F8
:103A50000446806888B08846D0F8A06215461F46A4
:103A6000002E4FD14FF42A72314622F02DFEA0686D
:103A700000F51F7022F0EAFDA06800F52270012217
:103A800066F38205114622F03AFAA36902211E600C
:103A9000A06800F51E7019F093FFA368502220461D
:103AA0005A871822A3681A8721681AF00FF9A368A9
:103AB000164A4146C3F87452606803681D6823467D
:103AC000A8470546D0B9A36801221A75D4E90A01AE
:103AD0000022002304950094CDE906230E234FF421
:103AE000006203930E9BCDE90173094B16F056FC5F
:103AF000A368C3F8A002616A16F07EFB284608B0EE
:103B0000BDE8F0816FF07705F8E700BFDDDA010866
:103B10009938000810B5044613460A46014606487F
:103B200001F0AEFB23691B7923B12046BDE81040AC
:103B30001AF013B910BD00BF73DD010838B50B468C
:103B4000154648B91449154A521AB3EB920F05D2DB
:103B500051F82350284638BD84680CB90025F9E790
:103B60000F4A94420AD30F4A944207D21846226859
:103B7000294690472B68002BECD1EFE70A4A944284
:103B800002D30A4A944205D3246814225343E51809
:103B9000E358F0E70133F8E7DC7502080C76020819
:103BA000B8790208CC7902080C760208B8790208C4
:103BB000F7B5002304460E4F22F0E0FF05461646F7
:103BC000C3510A46204601A917F078FCEB59222B75
:103BD00008D023B9019BA34201D01B7833B16FF009
:103BE000150301E06FF021030020336003B0F0BD46
:103BF0000C000000F7B50378044616462D2B05D1BE
:103C00006FF015030020336003B0F0BD00230C4FAC
:103C100022F0B4FF0546C3510A46204601A917F019
:103C2000C3FCEB59222B02D16FF02103EAE7002BF2
:103C3000E6D1019BA342E3D01B78002BE4D0DFE761
:103C40000C0000008368D3F874329B0603D5024948
:103C500040691AF03CBB7047007A020801491AF02B
:103C600036BB00BFF29602080A1E0DDC0ED04223BE
:103C70008168D1F87412890608D5002A0449406980
:103C8000B8BF52421AF023BB4123F1E7704700BF8F
:103C9000CCA002080A1E0DDC0ED044238168D1F8A6
:103CA0007412890608D5002A04494069B8BF5242F7
:103CB0001AF00DBB4323F1E7704700BFCCA0020808
:103CC0002DE9F04785680446DFF8649005F1560059
:103CD000FCF762FB002386B295F83C709846A26818
:103CE000558FED1BB54209DB002E1FDD5633606991
:103CF00010491A44BDE8F0471AF0E9BA1D4456339A
:103D000049462A4492F856A082F85680A268606913
:103D10001A441AF0DCFAA3682B4483F856A0A3686F
:103D20005B8FDB1B0027F61A2B46D8E7BDE8F08730
:103D3000D0B00208A399020808290A4617D8836858
:103D400093F83E10914212D083F83E20082A8368EF
:103D5000D3F8743205D0990609D5054940691AF09F
:103D6000B6BA9B0603D5034940691AF0B0BA70474A
:103D7000D3A00208057A020838B50D460978044632
:103D8000FFF7DAFF6A78072A11D8A36893F83F1083
:103D900091420CD083F83F20A368D3F874329B067D
:103DA00005D560690249BDE838401AF090BA38BDBF
:103DB000DCA00208F8B583680446B3F85020002A56
:103DC00055D0B3F85210002951D0553103F15605A2
:103DD0000B441846A84206D3014611F80169202E6B
:103DE0003CD0A8423CD286B2471C9DB2AB1B9BB2D2
:103DF000591CD21A0144384622F04CFCA268711BAF
:103E00002046B2F8503013FA81F309B2A2F85030CC
:103E1000A368B3F850201344002283F856201AF008
:103E2000C0FAA368D3F874329A0603D510496069C2
:103E30001AF04DFA3B460F4A082120461AF0CCFBF7
:103E40002046FFF7FFFEA368D3F874329B060ED519
:103E500060690949BDE8F8401AF039BA0846B9E77F
:103E6000014611F80169202EBDD00846B9E7F8BD1A
:103E70000A7A0208A39902080E7A02082DE9F84F7F
:103E800004460F4690460AB1FFF7DCFEA668D6F856
:103E90007432B6F852505B0724D505F15600304411
:103EA0002B4EFCF779FA0546B5B9A368B3F8502054
:103EB000A3F85220A0681AF017FA30B1B8F1000F39
:103EC00000D017B16069FFF7C9FE7942204609B2F8
:103ED000BDE8F84F1AF065BA31466069013D1AF045
:103EE000F6F9E1E73046AA46FCF756FAB6F85090E4
:103EF000738F19FA80F915FA80F0B0FBF3F2B9FB71
:103F0000F3F39A421BD0134D4845A368CDDA5A8F7C
:103F1000461CB0FBF2F302FB130313B96069FFF711
:103F20009DFEA3680AF1010B20462A46534408214E
:103F3000DA4693F856301AF04FFB3046E4E7563530
:103F4000054A0821204673191AF046FBADE700BF69
:103F5000B0AA0208D0A00208A399020813B583688A
:103F600004468DF80710D3F87422D00725D5B3F88E
:103F70005210B3F850208A421FD0481C9DF80720E9
:103F8000A3F852000B4483F85620A368D3F87412A8
:103F9000890710D5D3F87432606913F0040F0A4909
:103FA00018BF2A221AF093F920461AF0AFF910B17F
:103FB0006069FFF753FE02B010BD01220DF1070149
:103FC00020461AF016FBF6E7D0A0020810B504460A
:103FD0008368094A02211AF0FFFAA368D3F8743201
:103FE0009B0707D52046FFF76BFE2046BDE8104033
:103FF0001AF0B2B910BD00BFA399020801491AF026
:10400000DCBC00BFF2960208F8B50F4651680446C2
:1040100015461E4611B11A461AF0DCFCAB6883B196
:1040200031462046FFF736FE20463B46054A08212A
:104030001AF0D2FAF21DA9682046BDE8F8401AF03D
:10404000C9BCF8BDE5A002082DE9F04F0F460021DC
:1040500089B0044616460D4603AA384601F1010808
:10406000FFF76CFDA8B98DB126B132460821204674
:104070001AF0B2FA0021DFF89090DFF890B003AAAE
:10408000384601F1010AFFF759FD60B909B0BDE8F2
:10409000F08F006810B1FCF77FF980B2854241468D
:1040A00038BF0546D8E7D0F80080B8F1000F0FD030
:1040B00098F8003063B146684B46154A08212046FF
:1040C000CDE900581AF088FA26B96069FFF796FF23
:1040D0005146D4E74B465A46082120461AF07CFA4E
:1040E000AB1DB2079BB209D131680A4A914205D192
:1040F000324641462046FFF787FFE9E71A46314638
:1041000020461AF067FCE3E705A102083C93020889
:10411000F0A00208C40BD286F7B50F6805460E461C
:10412000EFB13846FCF738F984B2114B0821114A37
:10413000284600933B461AF04FFAE31C71689BB285
:1041400079B18A070DD108680B4A904209D10A4615
:104150002846316803B0BDE8F040FFF755BF3C4644
:10416000E3E71A46284603B0BDE8F0401AF032BC37
:1041700001A10208029F0208C40BD28610B50749AC
:104180000446FCF7F7F838B105492046FCF7F2F889
:10419000B0FA80F0400910BD0120FCE7F7A002084A
:1041A000FAA0020810B583680446D3F874329B065F
:1041B00003D5064940691AF07DFCA368502200200F
:1041C0005A871822A3681A8710BD00BF127A020806
:1041D00008B5836902491A6819F035FD002008BD49
:1041E00008A102082DE9F3410E4905460E4C19F0CD
:1041F0002AFD0E4E0022DFF83880B44202F101079A
:1042000003D3002002B0BDE8F081636A92B2414658
:1042100028460093303454F8283C19F014FD3A46EF
:10422000EBE700BF18A10208AC750208DC750208B4
:1042300030A10208024908B519F048FD002008BD68
:10424000BFDF020873B5044600250D4EA2680DF1CC
:1042500006030121E06802F5AB721AF0C9FCBDF853
:104260000600A36840B12A4603F5AB7331462046E9
:10427000013519F0E8FCE9E783F8560102B070BD9A
:1042800041A1020810B5044619F059FD0349024640
:10429000204619F0D8FC002010BD00BFFED4020853
:1042A000022907B50BD153680C4900930C4B1268D7
:1042B00019F0E5FC6FF0150003B05DF804FB8368AE
:1042C000084AD3F87432084913F0020F074B18BF9D
:1042D0001A4619F0B8FC0020EEE700BF64A10208FE
:1042E0004FA102084BA102086DA10208FF94020829
:1042F00010B583680446D3F874329A0603D507498B
:1043000040691AF0D7FBA368D3F874329B0603D533
:10431000034960691AF0CEFB002010BD197A02082B
:104320001E7A02080129F0B5044685B00AD0536808
:104330005E4900935E4B126819F0A1FC6FF0150006
:1043400005B0F0BD8368D3F87432990603D5594996
:1043500040691AF0AFFB6FF0F9012046FFF784FCCB
:10436000FA2120460025FFF795FCA0684FF48072E3
:10437000294600F5AB708DF80B504FF47A7622F099
:10438000A3F94D4960691AF095FB606919F0E5FCE5
:10439000606801220DF10B0103681F6903ABB84788
:1043A000039BEBB9013E4FF47A7021F0C6FBB6B225
:1043B000002EEDD1A368D3F874329B0603D53F4994
:1043C00060691AF077FBA368502220463C495A875F
:1043D0001822A3681A8719F044FC6FF00700AFE7B2
:1043E0009DF80B20A3681B2A52D093F856111B2965
:1043F000CED1522A4CD15A19002382F85631A668E0
:1044000096F857215B2A2AD106F25710022510F898
:10441000011F2A4601353B29ADB223D1FF2AC9D05D
:1044200002F5AB7216FA82F1002211F8010F18BBE7
:10443000FA2A86F85601A16828BFFA22FA2B4A8781
:1044400028BFFA23A2681387A368D3F874329A06A8
:1044500003D51A4960691AF02DFB002070E786F831
:104460005631A7E703EB83033039B5F5807F01EBC5
:1044700043018BB2CBD19DE7013502EB820230388C
:10448000ADB200EB4200B5F5807F82B2CDD191E7AD
:104490002B440135ADB283F85621092D7FF678AF54
:1044A000A368002283F8562184E700BF64A10208B4
:1044B0004FA10208247A0208B8A10208287A02084B
:1044C0007EA102082DE9F04F074689B015468946BE
:1044D00021B110461AF007FC00285BD1032455E0F7
:1044E0005C463CE029460AF5AB7022F077F90646B7
:1044F000002854D0FBF750FF314682B2601C08F10F
:1045000001080132304422F0C5F8224659463046AF
:1045100022F0B2F84FF020033355BAF8543001338B
:104520001C44AAF85440002401994B1C03AA484695
:104530000193FFF703FB0646E8B1002231682846E5
:104540001AF09AFD0028EFD1D6F800B0D7F808A0ED
:10455000BBF1000FC4D05846FBF71EFF84B2BAF877
:1045600054302344FF2BBDDD01242B460D4A03218B
:1045700038461AF031F8B8F1000F07D0B8682A466B
:1045800000F1540100F5AB7019F06AFD204609B046
:10459000BDE8F08F4FF0000802244146C5E7022431
:1045A000E9E700BF74A6020806480021064A08B5DC
:1045B000121A1AF0DDFB0548054A0021121A1AF0FA
:1045C000D7FB08BDF8150220043D022000000020A2
:1045D000000000200A480B4A0B49121A08B51AF0CD
:1045E000C9FB0A480A4A0B49121A1AF0C3FB0A48C7
:1045F0000A4A0B49121ABDE808401AF0BBBB00BFBB
:1046000000000220F81502206806030800000220BE
:10461000000002206806030800310020003100205D
:10462000601C03082DE9F843054600AF0C4600293D
:1046300048D0DFF8B890D9F800305A0742D06E461B
:104640008AB0A3686A46D1E90001DFF8A4C04FF040
:104650000508C2E905C0C2E9071342F8108F00231C
:104660004FF421514846FDF70BFAD9F80030B54612
:104670005B0727D08AB06369D4E903016A46DFF893
:1046800074C0C2E90713C2E905C042F8108F0023C5
:1046900048464FF42151FDF7F3F9D9F80030B546FB
:1046A00058070FD0E3690121134A484619F068F80A
:1046B000D9F80030590705D0A369104A01214846AE
:1046C00019F05EF8012D0AD1EFF30583074802685F
:1046D000520704D00A4A103B294619F051F82146E6
:1046E000284614F06FFFBD46BDE8F883B8110220DC
:1046F000C6A60208F5A6020824A7020833A70208E6
:1047000061A7020830BFFFF7FDBF00BF2DE9F041F0
:104710000B4E0546DFF82C80324606EB0807CC1B13
:104720000949204621F0A8FFA019083C4246002173
:1047300021F0CAFF07F10800C5F8B840BDE8F081D4
:104740000000000008000000CC790208054B5A69FF
:104750009B689A4204D0044A536843F080535360E4
:10476000704700BF5439022000ED00E0F8B5374C27
:1047700006460D4623685B0703D0354920461AF0EC
:1047800006FB344B9B6ADF0451D52368580703D0DE
:1047900031492E481AF0FBFA17202E4B9B6A190557
:1047A00007D523685A0703D02C4928481AF0EFFA96
:1047B0001820284FBB6A9B0519D52368580703D0DA
:1047C000274922481AF0E3FABB6BBA6A11040DD5E7
:1047D0002268520704D0234A01211C4818F0D0FF58
:1047E00026B11C4A936A23F4004393621920194BA3
:1047F0009B6A5B0507D523685F0703D01A491348F6
:104800001AF0C5FA1A20134B9A6AD60511D52368F7
:10481000590703D015490D481AF0B9FA1B200D4A63
:10482000936A43F47F43936200232B70F8BD1620F4
:10483000B3E79B6A9A04F2D523685B0703D00C495F
:1048400002481AF0A4FA1C20E9E700BFB8110220C0
:1048500074A7020800ED00E08AA702089BA70208DF
:10486000AEA70208C7A70208DCA70208F7A702083C
:104870000FA8020810B52D4C23685A0703D02C4905
:1048800020461AF084FA2B4B9B6A9B014BD5236878
:10489000580703D0284925481AF079FA1E20254BDD
:1048A0009B6AD90107D523685A0703D023491F48BB
:1048B0001AF06DFA1F201F4B9B6A1B0307D5236854
:1048C000580703D01E4919481AF061FA2120194BE4
:1048D0009B6A590307D523685A0703D0194913481F
:1048E0001AF055FA2220134B9B6A9B0307D52368C5
:1048F000590703D014490D481AF049FA23200D4BEB
:104900009B6ADA0307D523685B0703D00F49074882
:104910001AF03DFA2420074A936A6FEA03436FEACC
:104920001343936210BD1D20B9E700BFB8110220E8
:104930003EA8020800ED00E056A8020869A8020897
:1049400083A80208A1A80208C6A80208E0A80208D5
:104950002DE9F047454D8946804617462B68590793
:1049600003D0434928461AF012FA424B9B6ADA06F2
:1049700039D52B685B0703D03F493C481AF007FA4A
:1049800011243C4B9B6A1E0707D52B68580703D0A0
:104990003A4936481AF0FBF91224DFF8D8A0DAF8C1
:1049A0002830990721D52B685A0703D034492F485E
:1049B0001AF0EDF9DAF83460DAF828301B0651D530
:1049C0002B685C0705D02F4A33460121274818F091
:1049D000D7FEB9F1000F04D0264A936A23F0800372
:1049E0009362132403E01024CBE76FF01506214BEC
:1049F0009B6AD80707D52B68590703D022491B4863
:104A00001AF0C5F914241B4B9B6A9A0607D52B682C
:104A10005B0703D01D4915481AF0B9F91524154B49
:104A20009A6AD50602D49A6A90070AD55B68190576
:104A300007D54146304600F04BFA10B180F30988A3
:104A400002240C4B9A6A920603D55A6A22F4005249
:104A50005A629A6A204642F0FF029A6200233B7033
:104A6000BDE8F0876FF01506BBE700BFB811022064
:104A70000BA9020800ED00E021A902089BA702088B
:104A800054A902086CA9020882A902080FA802080A
:104A90002DE9F041744B8AB004460025D3F8048018
:104AA00000AFC8F3080685F31188BFF36F8F02F0DB
:104AB0007F43B3F17F4F0AD102F00C03082B15D1CD
:104AC0006A480368590702D069491AF060F900255D
:104AD0002C460023FB71F31E092B00F2A080DFE8B7
:104AE00003F00A92958E9E9E9E9E9E9812074CBF42
:104AF0000C460125EDE75D4E33685B0703D05D4949
:104B000030461AF044F90023FB71574BDA6A9007DC
:104B100008D53368590703D0574954481AF037F974
:104B200000233CE0DA6A002A04DA33685A07F7D037
:104B30005249F2E7DB6A5B00F2D53368580703D0CD
:104B40004F494A481AF023F9474BA1695A6942F480
:104B500080725A61BFF34F8FBFF36F8F5A6931F87C
:104B6000021C22F480725A61BFF34F8FBFF36F8F24
:104B70004DF60272914208D09A6AD2B292B3FA1DEF
:104B800001212046FFF7E4FE3BE03368590705D0DA
:104B900023683C4A0121354818F0F2FD2368FA7970
:104BA000E2B907F1080604F1200C2068083454F833
:104BB000041C3246644503C21646F6D17A6A002DBB
:104BC0004DD0C2F3080121B96FEA52226FEA4222A6
:104BD0007A6207F108011846FFF724FD2837BD4621
:104BE000BDE8F0819A6A12F47F4F04D0F91D0120CC
:104BF000FFF7BCFD05E09B6AB3F5803F90D3FFF75C
:104C000039FE0346CBE7FA1D0021BAE7F91D002063
:104C1000EEE7164803685A0782D01B497EE713481F
:104C200003685B073FF47CAF18F4F87F174AE84647
:104C30008AB0174B18BF13466A461649103EC2E9A0
:104C400005134FF40073D6611384134B42F8103FE1
:104C500000234FF41151FCF713FFC54660E722F41F
:104C6000FF7222F00102B3E700ED00E0B81102206C
:104C7000CFA90208FAA9020811AA020832AA02085A
:104C800040AA02085FAA02087BAA0208B6A9020885
:104C9000A1A902089FAA020804000001044B5A6956
:104CA00042F010025A615A6922F008025A617047B4
:104CB00000ED00E0EFF30880EFF3098101B57246E3
:104CC000FFF7E6FE01BD00BF0E4880F30888102004
:104CD00080F311880C484FF0AA014FF404621AF0D7
:104CE00047F809484FF40461401880F30988EFF34E
:104CF00014800221084380F31488BFF36F8F00F003
:104D0000B3F800004079022080670220084B9B68BE
:104D100083420BD1EFF3058343B1064B5A6842F04F
:104D200080525A605A6A22F400425A6215F096BEC6
:104D30005439022000ED00E015498A684FF0300038
:104D40001044EFF3098C80E8F01F102080F31288E4
:104D5000BFF36F8F0F4F4FF000664A698A603E6065
:104D6000D2F8B8000C4C2060D2F8BC000023C2F886
:104D7000BC3080F3118804B5104600F011F9BDE88D
:104D8000044002F1300090E8F01F8CF3098870476E
:104D90005439022004ED00E0CC2C02201EF0040F58
:104DA0000CBFEFF30880EFF30980816911F8021C52
:104DB0000229FFD001B5724619F0DEFF01BD00BF28
:104DC00040B2002807DB0123410900F01F00024A1E
:104DD000834042F82130704700E100E040B20028F3
:104DE0000CDB4309012200F01F00054920338240FB
:104DF00041F82320BFF34F8FBFF36F8F704700BF81
:104E000000E100E04209054B00F01F0053F82220AA
:104E1000012303FA00F01040704700BF00E100E0FA
:104E200040B2013100284FEA0111C9B206DB00F19E
:104E3000604000F5614080F80013704700F00F00FB
:104E4000014B1954704700BF14ED00E0044B054AB4
:104E500023F07F039360BFF34F8FBFF36F8F7047D3
:104E60000000000800ED00E008B5FFF7EFFF0B4A77
:104E7000D2F8883023F47003C2F88830EFF314833B
:104E800023F0040383F31488BFF36F8FFFF78CFBC9
:104E9000FFF7A0FB00F05AF814F0D0FC00ED00E0A2
:104EA00042F8203C203A009B08495360019B21F0C6
:104EB00001019360029B9161D3604FF08073D361D5
:104EC00000230265C0F8BC30704700BF69110008BC
:104ED0000A4A0346906878B113F1160FD0F8A8007B
:104EE00005D0A0F140029A4205D8834203D2814204
:104EF00028BF002070470020704700BF54390220AF
:104F000015460D4A0E4608B50C4B9060D0F8B820F7
:104F10001A6000F045F82C4686F309880020044BFF
:104F200098472046002100220023024C2047000021
:104F3000A5ED01086911000854390220CC2C02208B
:104F4000014B10221A61704700ED00E00023044875
:104F50001021C21801336E2B82F80013F9D170476B
:104F600000E100E008B5EFF30583064A103B02EBD1
:104F7000C30152F8330049688847BDE80840FFF78D
:104F8000E5BB00BFB06F0208024B0121024A034893
:104F900000F092B800000820000002208C81020876
:104FA000D0F8A8204021054B403A18461A60044A20
:104FB000C3E90112012100F089B800BFD02C022002
:104FC00000000B1508B503461148D0F89020C2F335
:104FD0000722013A93420AD90E480268520703D0C9
:104FE0000D4A012118F0CCFB6FF0150008BDC0F888
:104FF00098300A6822F01F021A4342F01002C0F8EB
:105000009C208A6842F00102C0F8A0201846EDE713
:1050100000ED00E03C110220B6AA0208F0B50E46F1
:1050200085B01F4604460025B54210DA606828B3F3
:10503000AFB1431E18420DD0124803685B0704D07D
:10504000114A2B46012118F09BFB6FF01502104608
:1050500005B0F0BD1F28EFD921680B42ECD12368C1
:1050600001A9019319F0B2FEA3680343D0B20393E0
:10507000FFF7A8FF10F1160FE7D0421C01350C34E2
:10508000D2E700BF3C110220DCAA0208044B052233
:10509000C3F89420BFF34F8FBFF36F8F704700BFEB
:1050A00000ED00E0BFF35F8F024B0022C3F89420B5
:1050B000704700BF00ED00E010B5034C01232278DB
:1050C000FFF7ACFF207010BDB13902200B4A08B5C4
:1050D00000231278FFF7A2FF10F1160F07D0084A3D
:1050E0000021D2F89030C3F30723984200DB08BDBB
:1050F000C2F898000130C2F8A010F2E7B1390220DE
:1051000000ED00E0584859492DE9F043D0F89030BF
:1051100085B00D68C3F307239D4200F2A180FFF71D
:10512000C1FF49680022954201F10C011AD1504C8F
:105130006846504F2570FCF75BFF00250646DFF8F8
:105140003881DFF83891AE421FD1237800204649DC
:10515000D1F89020C2F3072293427BDB0020FFF7B7
:1051600095FF4CE0C0F8982051F80C3C23F01F0349
:105170001343013243F01003C0F89C3051F8043C53
:1051800043F00103C0F8A030CDE700984FEA051CBA
:1051900000EB0511CB683B40B3F5000F44D00AD8B3
:1051A000B3F5001F2ED0B3F5800F34D0B3F5801FB8
:1051B00010D00135C7E7B3F1807F3ED0B3F1007F57
:1051C000F7D150F80C30886819F000FE4A6840F4B6
:1051D000802009E050F80C30886819F0F7FD40F0A5
:1051E00088504A6840F43020039001A92078CDE926
:1051F0000123FFF7E7FE002828DA6FF0150005B05D
:10520000BDE8F08350F80C30886819F0DFFD4A687B
:1052100040EA0800E8E750F80C30886819F0D6FD3D
:105220004A6840EA0900DFE750F80C30886819F056
:10523000CDFD4A6840F08270D6E750F80C3088689F
:1052400019F0C4FD4A6840F08870CDE72378013337
:105250002370AEE7C1F898300133C1F8A00077E7BA
:105260004FF0FF30CBE700BF00ED00E0988102086F
:10527000B13902200000F0FF000008110000020612
:10528000F0B587B007460E46144600211022684646
:105290001D4621F019FA02232A4621468DF80230D4
:1052A0006846044BCDE90476019316F005FB07B080
:1052B000F0BD00BFEDED010808B5024B1B68984733
:1052C000002008BDDC2C0220034B044A18609378B0
:1052D00043F0020393707047DC2C0220D0080220B8
:1052E0000649074821F00701C1F1005208B502F54F
:1052F000002217F02BFD002008BD00BF87D302203D
:10530000E02C022008B500F0B7F80A49012200237A
:10531000416109490361C0E900220A6007490A6046
:10532000074A1360074A1360074AC0E90233136053
:1053300008BD00BFBFDF0208FC080220F8080220F9
:10534000F42C0220F02C0220EC2C02202DE9F0415C
:1053500007460E46154600F08FF8C36804461BB991
:1053600043691A78002A41D10023E3606368BB4295
:1053700056F8232008DB324B6361204600F062F8C8
:105380004FF0FF30BDE8F081511C616192F8008060
:10539000B8F12D0FEFD1911C616151782D29A160D9
:1053A00004D192786AB901336360E4E749B9244BC8
:1053B00041462846636121F0A3F90028DDD0C4F8F6
:1053C0000880D4F808802846414621F099F9B8F1C0
:1053D0003A0F636900D070B91B7813B96368013361
:1053E0006360204600F02EF83F20CBE75A1C426154
:1053F0001B788360E5E742783A2A0BD000222261CD
:105400001B7813B9636801336360204600F01AF813
:10541000A068B7E718786268094928B9013297424D
:10542000626004DD56F82230C4E90431EAE76161C4
:1054300020462D783A2DD5D100F004F82846A1E772
:10544000BFDF02080268074B1A604268064B1A6009
:105450008268064B1A60C268054B1A600269054BE8
:105460001A607047FC080220F8080220F42C022081
:10547000F02C0220EC2C022000487047E0080220AB
:1054800070B541690446867A0A4D59B1437ADB0703
:1054900006D42C2303FB06535B6A1B689B68984762
:1054A000002363612C20214606FB0050BDE87040BC
:1054B00020F00CBDC8130220827A2C21054B01FB81
:1054C00002339A6A1B7F801A1B3323F00303B0FB5D
:1054D000F3F07047C813022038B52C24827A064BAB
:1054E00004FB02335B6AD3E901240C601568FFF703
:1054F000E3FF04FB005038BDC81302202DE9F04340
:1055000085B0054690461C466846039120F06DFF25
:10551000DDE90067EFF31189102383F31288BFF3ED
:105520006F8F6B8B002B41D02A8B9A4225D900229A
:105530000023284614F0E2FB0446F0B189F31188F9
:10554000BFF36F8F039B002B41D032463B4668462A
:1055500020F070FFA27A2C21254B204601FB02335C
:1055600003A95B6A1B681D68DDE90023A847606129
:1055700070BB2046FFF784FF24E0698B4B1E6B83D2
:1055800089F31188BFF36F8F2B7F2A8B1B33AC6A93
:10559000521A23F0030302FB0344154B154AEB1A7E
:1055A0009B105343A3722B7FE372CBE789F31188DF
:1055B000BFF36F8F23464246284614F09FFB0446F4
:1055C0000028BFD10024204605B0BDE8F083636108
:1055D00001230025E27A04F1180023812946039B68
:1055E0006560638221F070F863692582E360EAE711
:1055F000C8130220A38B2EBA70B50D4C2C2500B910
:1056000070BD037A4668002BFAD0013BDBB203720F
:10561000002BF5D1C3604360837A05FB03431B6A0B
:1056200013B198473046EAE7FFF72AFFFAE700BFD1
:10563000C8130220F7B506460D460D488AB231461A
:1056400083681B689847002810DA00240CE02F1BA1
:10565000042F28BF042713F021FB019030193C448C
:105660003A4601A921F008F8A542F0D803B0F0BDF0
:10567000906E020830B5C0430A440C4D914201D1EE
:10568000C04330BD11F8013B83EA000404F00F046D
:1056900055F8244084EA101080EA131303F00F0336
:1056A00055F8233083EA1010E8E700BFC8810208EC
:1056B00000487047D411022000487047C8130220E8
:1056C00038B50D46044668B103685BB15968064AAF
:1056D000914207D11B689B685B681BB198478307A1
:1056E00048BF2C6038BD00BFE415022037B50569FE
:1056F0000A4695F8443013F0020414D1E968914247
:1057000014D043F00203AA604FF40070094985F8F1
:1057100044302346009409F01BFDE86808F034FF8C
:10572000204603B030BD6FF07700FAE76FF0150048
:10573000F7E700BF000050F002460B46014814F0A6
:1057400015BA00BF6C120220014814F087BA00BFDE
:105750006C12022038B54FF0FF31046905464FF056
:10576000FF30FFF7E9FF144B00211A6852B1944251
:105770001FD12268B9B959681A608C4200D15A60A9
:10578000002222601A6822605A681C6002B95C60BC
:1057900094F84430656043F0040384F84430FFF724
:1057A000D3FF002038BD0A605A68944208BF596090
:1057B000E6E711461268D9E7402D02202DE9F843AB
:1057C000836800AF04699B6898470021E06819F07E
:1057D00000FF206908B109F045FFA68DE568022E9B
:1057E00036D104F13009284649461BF067FB00BB5F
:1057F000DFF8B480D8F800305A071AD0494630464E
:1058000009F070FA814628466E4608F07DF88AB0A5
:105810006A46264B4FF41151D0614046C2E9053922
:105820004FF400731384224B42F8103F19F07EFDB1
:10583000B5460721284619F07CFD002094F8443035
:1058400060F30003E06084F84430BD46BDE8F883AF
:10585000012EF2D104F13009284649461BF08AFB9B
:1058600000BBDFF84480D8F800305B071AD0494607
:10587000304609F037FA814628466E4608F044F86B
:105880008AB06A46094B4FF41151D0614046C2E9D3
:1058900005394FF400731384054B42F8103F19F09B
:1058A00045FDB5460621C5E74C1102202CAB020888
:1058B0000400000137B50369002493F844109D6883
:1058C00064F341019C60D86883F8441008F09EFEA0
:1058D00023462A464FF480600349009409F038FCBF
:1058E000204603B030BD00BF000050F070B5054643
:1058F00086B00E464FF0FF304FF0FF31FFF71CFF30
:10590000174B1B680BB11C6823B906B0BDE870408B
:10591000FFF71ABF93F84420D10719D55968C2F38D
:105920004002009199680191D9688DF81420029184
:1059300003F114012C3303910493FFF705FF314663
:105940006846A8474FF0FF304FF0FF31FFF7F4FEF5
:105950001CB1226823461446D6E72246FAE700BF68
:10596000402D02202DE9F04FA7B000258146884642
:1059700002AF0021144607F1680028229B4620F060
:10598000A3FE1822294607F12000C7E9015520F09F
:105990009BFE1822294607F1380020F095FE1822B8
:1059A000294607F1500020F08FFEBBF1000F26D0F2
:1059B000B9F1000F23D0B8F1000F20D0FCB1484658
:1059C000FAF7EAFC07F12002014648461BF040FEC8
:1059D000E8B9A7480368590711D06C468AB002AAF3
:1059E000A44B4FF421515361A34BC2E90639A34B99
:1059F0001362A34B42F8103F19F098FCA5466FF0D4
:105A000015047868002852D01BF0E9FE4FE02046CC
:105A1000FAF7C2FC07F15002014620461BF018FEBF
:105A2000B0B9934803685A07E9D06D468AB002AA14
:105A3000904B4FF421515361924BC2E906348F4B86
:105A400013628F4B42F8103F19F070FCAD46D6E759
:105A50003C8C022C30D107F1240630461BF029F98A
:105A6000A7F86840054607F1100496E80F0007F113
:105A70006C0684E80F0086E80F00002D38D02E68F1
:105A8000002E4DD0368BA6F1300A3B1D112202218B
:105A9000B7F8680009F0FCFC041E48DA7448036893
:105AA0005D0704D0784A2346012117F069FE20469D
:105AB0009437BD46BDE8F08F012C0FD107F12400CB
:105AC0001BF056F97B6A0546A7F86840FB6678B17B
:105AD000036843B31E8BA6F11C0AD6E7644803682B
